:020000041000EA
:1000000000B5324B212058609868022188439860DF
:10001000D860186158612E4B002199600221596106
:100020000121F02299502B49196001219960352056
:1000300000F044F80222904214D00621196600F024
:1000400034F8196E01211966002018661A6600F04E
:100050002CF8196E196E196E052000F02FF8012189
:100060000842F9D1002199601B49196000215960AB
:100070001A491B48016001219960EB211966A021F2
:10008000196600F012F800219960164914480160C1
:100090000121996001BC002800D000471248134993
:1000A000086003C880F30888084703B5996A0420EC
:1000B0000142FBD001200142F8D103BD02B5186610
:1000C0001866FFF7F2FF186E186E02BD00000240BE
:1000D000000000180000070000035F00212200005C
:1000E000F4000018222000A00001001008ED00E03C
:1000F00000000000000000000000000074B24E7A12
:1001000000200420F7010010CB010010CD010010E9
:10011000C9010010C9010010C9010010C901001077
:10012000C9010010C9010010C9010010CF01001061
:10013000C9010010C9010010D1010010D301001045
:10014000C1010010C1010010C1010010C101001067
:10015000C1010010C1010010C1010010C101001057
:10016000C1010010C1010010C1010010C101001047
:10017000C1010010C1010010C1010010C101001037
:10018000C1010010C1010010C1010010C101001027
:10019000C1010010C1010010C1010010C101001017
:1001A000C1010010C1010010C1010010C101001007
:1001B000C1010010C1010010C1010010C1010010F7
:1001C000EFF30580103800BE00BE00BE00BE00BECA
:1001D00000BE00BEF2EB887190020010B402001065
:1001E0003802001090A31AE721482249086006C887
:1001F00081F30888104720480068002801D01C4877
:10020000F3E70DA40ECC002902D000F012F8F9E7B4
:100210001A491B4A002000E001C19142FCD1194952
:100220008847194988471949884700BEFDE701C931
:1002300001C29A42FBD37047B4020010C0000020F4
:10024000CC000120C0020110D0000120D02D0120DF
:10025000C02F01100000042000000420C02F011056
:10026000001004200010042000000000704700006F
:100270000000000008ED00E0000000D0D02D0120BB
:10028000D44D0120D5A10020AD7A0020CDA10020C1
:100290005C2501206825012074250120802501208E
:1002A0008C25012098250120A4250120E826012085
:0402B000DC26012027
:1002B400F8B5C04606480749091A8B10C90FC91872
:1002C40010B5491003D0044B002B00D0984710BD43
:1002D400D02D0120D02D012000000000054B10B5C9
:1002E400002B03D00449054800E000BFFFF7E2FFFC
:1002F40010BDC046000000008C4D0120CC00012040
:10030400A423082170B5FF24124A1348D150134A7C
:100314000168136815685B1AA343491BC918016077
:100324000F481B0A01681B044B401B0C0D490E4E61
:100334001B040B603568536852685B1BA343AD1AFA
:10034400ED18356002681B021B0C53401B041B0C88
:100354000B6070BD00000540F83C0120F826012028
:100364004800054048100540FC3C0120F0B55023EE
:1003740087B017266A460405240F1C436E44AF3326
:1003840093750D00307009F0A7F800231A4A1B4F2B
:1003940012184B41002B02DA0122194B52420292ED
:1003A40003930023320000932100380001330FF03F
:1003B400C3F900281ADD09F08FF800230E4A8018CB
:1003C4005941002902DA01200D4940420023162236
:1003D4000290039100932100380001336A440FF026
:1003E400CFF9002802DD6B46987D02E0012300204E
:1003F4002B7007B0F0BDC04610270000182801205C
:10040400FFFFFF7F10B5024B186810F057F810BDBE
:10041400D03C012070B5D02501220021072008F02E
:100424002FF801220021062008F02AF801220021D9
:1004340005202D0608F024F80120002108F0A8FE6C
:100444006A686C686B6864069B06E40FDB0F1B012B
:10045400A4001C431306DB0F0022012107201C43C8
:1004640008F00EF800220121062008F009F8002205
:100474000121052008F004F80120002108F088FE7D
:1004840069686A6809066B68C90F5206490064B254
:10049400D20F9B060C43D200DB0F5B010021072027
:1004A400144301221C4307F0EBFF01220021062024
:1004B40007F0E6FF64B201220021052007F0E0FF07
:1004C4002A2C05D0302C03D0FF200C2C00D070BD7A
:1004D400E0B2FCE7F0B54E46DE465746454603001B
:1004E4008C46E0B5634424331B7885B0994601906B
:1004F4000291002B00D138E280468B0003936344C1
:100504001B019844444600202C34205609F008FE70
:10051400E94909F0CEFD4446071CA06A09F000FE33
:1005240000218246381C09F0ADFD0021041C504610
:1005340009F0A8FD391C051C381C09F0BAFD00217E
:1005440009F0A0FD391C061C504609F0B2FD00213B
:1005540009F098FD4A46071C012A00D1A6E142464B
:1005640000203432105609F0DBFDD34909F0A1FD17
:1005740042468246106B09F0D3FD51468346201C47
:1005840009F080FD5946041C281C09F07BFD5146E6
:10059400051C504609F08DFD011C301C09F072FD4C
:1005A4005146061C584609F084FD011C381C09F00C
:1005B40069FD4A46071C022A00D177E14246002021
:1005C4003C32105609F0ACFDBB4909F072FD4246BD
:1005D4008246906B09F0A4FD51468346201C09F025
:1005E40051FD5946041C281C09F04CFD5146051CBC
:1005F400504609F05EFD011C301C09F043FD5146D4
:10060400061C584609F055FD011C381C09F03AFD3A
:100614004A46071C032A00D148E1424600204432DE
:10062400105609F07DFDA44909F043FD4246824677
:10063400106C09F075FD51468346201C09F022FD1B
:100644005946041C281C09F01DFD5146051C504642
:1006540009F02FFD011C301C09F014FD5946061C3D
:10066400504609F026FD011C381C09F00BFD4A46D2
:10067400071C042A00D119E1424600204C321056CE
:1006840009F04EFD8C4909F014FD42468246906CF7
:1006940009F046FD51468346201C09F0F3FC5946F7
:1006A400041C281C09F0EEFC5146051C504609F0B8
:1006B40000FD011C301C09F0E5FC5946061C50469F
:1006C40009F0F7FC011C381C09F0DCFC4A46071C45
:1006D400052A00D1EAE054234246D05609F020FD11
:1006E400754909F0E6FC42468246106D09F018FD92
:1006F40051468346201C09F0C5FC5946041C281C9D
:1007040009F0C0FC5146051C504609F0D2FC011CFE
:10071400301C09F0B7FC5946061C504609F0C9FCC8
:10072400011C381C09F0AEFC4A46071C062A00D1FD
:10073400BCE0424600205C32105609F0F1FC5E49F0
:1007440009F0B7FC42468246906D09F0E9FC514637
:100754008346201C09F096FC5946041C281C09F009
:1007640091FC5146051C504609F0A3FC011C301CA9
:1007740009F088FC5946061C504609F09AFC011CF5
:10078400381C09F07FFC4A46071C072A00D18DE07B
:10079400424600206432105609F0C2FC464909F072
:1007A40088FC42468246106E09F0BAFC51468346E4
:1007B400201C09F067FC5946041C281C09F062FC43
:1007C4005146051C504609F074FC011C301C09F00C
:1007D40059FC5946061C504609F06BFC011C381C98
:1007E40009F050FC4A46071C082A5FD04246002004
:1007F4006C32105609F094FC2F4909F05AFC424619
:100804008246906E09F08CFC51468046201C09F00B
:1008140039FC4146041C281C09F034FC5146051CD3
:10082400504609F046FC011C301C09F02BFC4146E3
:10083400061C504609F03DFC011C381C09F022FC42
:100844004A46071C092A31D00298019A84469046E8
:10085400039B742063441B0198444346185609F0D3
:100864005FFC154909F025FC43468246186F09F0E0
:1008740057FC51468046201C09F004FC4146041CE8
:10088400281C09F0FFFB5146051C504609F011FCD9
:10089400011C301C09F0F6FB4146061C504609F0C9
:1008A40008FC011C381C09F0EDFB071C211C201C52
:1008B40009F0FFFB804601E0CDCCCC3D484609F071
:1008C4002FFC311C814609F0F4FB414609F0D7FBAB
:1008D4000021061C09F01CFC002842D1391C4846A2
:1008E40009F0E7FB291C071C201C09F0E2FB011C92
:1008F400381C09F0C4FB311C09F0C7FB1E49071C56
:1009040009F0D7FBFC21890509F0BCFB09F02AFC9E
:100914008046029B211C1E01019B381C9C46664498
:100924003300C8331F6009F0C4FB011C281C09F004
:10093400A6FB494609F0A9FB3300CC3342461860B4
:10094400FC21D0238905F25009F09CFB09F00AFC34
:10095400D423F05005B0F0BCBB46B246A946A0462D
:10096400F0BD002300279846D3E7002398461F1CB8
:100974001E1C1D1C1C1CA1E7ABAAAA3F0323F0B537
:1009840057469A46DE464E4645465146E0B5213323
:100994009FB0C154C83399464946C03BC1544C4BDF
:1009A400002483629846342314268346494F4A4DD3
:1009B400C454083307630021C65485630490FFF7C9
:1009C40089FD5A4625235146D15449465733D154BB
:1009D400434693678423D454043BD7500C33D654F2
:1009E400043B1000D550EB39FFF774FD02AA02ABAB
:1009F40094465C751523634419000020FFF7B6FC88
:100A040002AA944615236344040019000120FFF749
:100A1400ADFC324B240204439C4200D08DE102A978
:100A24008C461622624493461722624490462C4A0E
:100A340008AB9246FF221D00002491460027294E50
:100A440005931BE008F048FD80197941002902DA7A
:100A540001202549404200230290039100935A4605
:100A64005021504601330EF08BFE002820DD5B46FA
:100A74001B7801342B700135582C22D05B464A4632
:100A84001A7043461C7008F027FD8019794100292B
:100A940002DA01201449404200230290039100939A
:100AA40042465021504601330EF046FE0028C9DC70
:100AB400012302AA5375002301342B700135582CED
:100AC400DCD108AC059B0949094856343AE0C046D4
:100AD400344E050050FC030040A90200D107000079
:100AE4001828012010270000FFFFFF7FFFFF0000F0
:100AF4002110000049008AB209B200292EDB5200FD
:100B040091B212B2002A2FDB49008AB209B200293D
:100B140030DB520091B212B2002A31DB49008AB2B2
:100B240009B2002932DB520095B212B2002A33DB3B
:100B34006D00A9B22DB2002D34DB4900013389B216
:100B44009C4235D01A78120251400AB2002AD1DAF6
:100B54005200424011B292B20029D0DA4900414019
:100B64000AB289B2002ACFDA5200424011B292B2DC
:100B74000029CEDA490041400AB289B2002ACDDA0E
:100B84005200424011B292B20029CCDA4D004540E5
:100B94002AB2ADB2002ACBDA510041400DB289B27B
:100BA400002DCADA6D0045400133A9B29C42C9D177
:100BB4001820562302AA1218D35A5BBA9BB28B424E
:100BC40000D0BAE024229446049B00271D0063440D
:100BD40098462423994609AC283511AE4246237819
:100BE400D355002B00D19AE0A278E17812060904CB
:100BF4000A4361790A43217909020A4361782A6028
:100C04002971012B00D18AE0E279217A12060904C4
:100C14000A43A17A0A43617A09020A43A179AA60C4
:100C24002973022B7BD0227B617B120609040A43C1
:100C3400E17B0A43A17B09020A43E17A2A6129750F
:100C4400032B6CD0627CA17C120609040A43217D2B
:100C54000A43E17C09020A43217CAA612977042B17
:100C64005DD04846A27DE17D120609040A43617EF7
:100C74000A43217E09020A43617D29542A62052B15
:100C84004DD0E27E217F120609040A43A17FA07E93
:100C94000A43617F09020A432C216854AA62062B85
:100CA4003DD032787178120609040A43F178E07F66
:100CB4000A43B17809020A43342168542A63072B92
:100CC4002DD07279B179120609040A43317A307948
:100CD4000A43F17909020A433C216854AA63082BA8
:100CE4001DD0B27AF17A120609040A43717B707A34
:100CF4000A43317B09020A43442168542A64092BBC
:100D04000DD0F37B327C1B0612041343B27CB17BFF
:100D14001343727C120213434C22A954AB6439006E
:100D24000498FFF7D7FB7B1C29340127503529365B
:100D3400022B00D052E7002000E001201FB0F0BCDD
:100D4400BB46B246A946A046F0BDC046F0B5D6465D
:100D54004F4646460025C0B50700F04B10220360FD
:100D640000210561C560856045600562C5618561D6
:100D74004561F83009F0DAFA842338005B00FD524B
:100D84000D30023308220021FD52FF3009F0CEFA63
:100D940080238A221B015200BB520232BB5238000C
:100DA4008C2300245B001D30FC540021FE3AFF30EC
:100DB40009F0BCFA3800353006220021FF3009F072
:100DC400B5FAB5235B00FC543E230822FF33FC54E0
:100DD400D34B01261A60E022D24BD2011B68134088
:100DE400D14A13609D235B00FC54063BFC5436231C
:100DF400FF33FC540133FC543823FF33FC540133D8
:100E0400FC543A23FF33FC54C84CA31D9946C84BE9
:100E14009846237804219A46180007F017FB534696
:100E24000421581C07F012FB534652465B081F2A44
:100E340000D9ADE107221A4093009B18BD49BE4A70
:100E44009B009A18591815600D60BC4959180D601B
:100E5400BB498C46414663441960102353601660B5
:100E64002378013359081F2B00DD8DE107220A4046
:100E740093009B18AF49B04A9B009A185918156003
:100E84000D60AE4959180D60AD498C464146634426
:100E9400196010235360166023785A081F2B00D959
:100EA4006EE1072111408A005218A449920051189A
:100EB400096840468C463100194049424140604629
:100EC4000140A04801338446624411605A081F2B34
:100ED40000DD1FE10721114040468A00521897495E
:100EE40092005118334009685B4243400B409549D6
:100EF40002348C4662441360A1458AD10EF03AF95B
:100F04001F211B2007F0A2FA002200211B2007F05A
:100F1400B7FA00211B2007F0C7FA1F211A2007F097
:100F240095FA002200211A2007F0AAFA00211A20BB
:100F340007F0BAFA1F211C2007F088FA00220021CA
:100F44001C2007F09DFA00211C2007F0ADFA1F2198
:100F54001D2007F07BFA002200211D2007F090FAE3
:100F640000211D2007F0A0FA182007F0B1FA19207B
:100F740007F0AEFAD024802324065B046362802346
:100F84009B046362082007F0A3FA80235B0063627A
:100F94000920636107F09CFA80239B0063620220AE
:100FA400636107F095FA04230022A3620121022061
:100FB40007F066FA032007F08BFA0823624DA36258
:100FC40000220121032007F05BFA28005F490EF09C
:100FD40031F90222904641466B68122013405C4A64
:100FE40011600F22296810255140C0320A40594926
:100FF4000A60594A0121136007F028FA01211320DD
:1010040007F024FA0121152007F020FA0421172003
:1010140007F01CFA0421162007F018FA0022464BA8
:101024004E49DA635A649A64D9641D64DE63DA63F0
:101034005A649A64D9641D64DE63FA2348499B04A4
:101044000A68072053401B0C464A1B041360FA230A
:1010540009689B004B401B041B0C136007F038FA13
:10106400062007F035FA052007F032FA8023A36240
:10107400403BA362203BA362142007F029FA00221C
:101084000021142007F0FCF9042007F021FA65621E
:101094003549A56135480EF027FB0321102007F0E0
:1010A400D5F90321112007F0D1F9002007F010FA37
:1010B4006662012007F00CFA434638006362FFF7CA
:1010C400A9F9F023F8543800FFF758FC9F23464051
:1010D40001205B003040F854563B9846B8444046E3
:1010E40009F0D4FA14264346214C224D1868596855
:1010F400214A224B08F0A6FF013E00196941002E47
:10110400F6D14346186059603800E0BCBA46B1468F
:10111400A846F0BD032111400831DDE6502101202D
:1011240000F0044000C0044000D0044060210120CD
:10113400FFFF000008000540000005400C000540CA
:10114400100005400C10054000C00340286BEE0061
:1011540004F0034000D0034004E00340CF07000044
:101164004800054048100540A086010018280120C9
:101174004F8167F77E7B05142D7F954C2DF45158D4
:101184000321114008318EE603220A4008326FE63B
:1011940003221A4008324FE6F0B50400DE465746F3
:1011A4004E464546E0B52600B1B0FFF7CFFD9D4B56
:1011B4006D3623609C4BFF3619006422300098463C
:1011C40009F0BAF82000D1301C220021FF3009F0C8
:1011D400ADF82000ED301C220021FF3009F0A6F804
:1011E400822300259B00E55004339946DC22A14468
:1011F40000214846520009F099F8D8228B4F4846FE
:101204003900520009F098F8EF239B00E3181D60A1
:10121400F0239B00E3181D60F1239B009946DC2218
:10122400A14400214846520009F080F8D822390030
:101234004846520009F080F87D4B6C22E3181D608B
:10124400AF23DB00E3181D607A4BE01864234344AA
:101254001900994609F070F8BD23DB00E554764B7C
:101264006C224946E01809F067F8CB23DB00E5540B
:10127400724B6C22E7184946380009F05DF8D9230F
:10128400DB00E5546E4BDB22E5500433E5506D4B37
:10129400D200E5500123A350012292466A4A00215C
:1012A400A352DC23DB00E550684B694AE550043364
:1012B400E250684B684AE5500433E550674BE2500E
:1012C400C0220433E550664B5201E2503C22043301
:1012D400E552644BE254644B0432E5500433E018A5
:1012E40009F024F8E923DB00E550604B6C22E5505B
:1012F4000433E5505E4B4946E01809F01DF8F82325
:101304000022DB00E5525B4B4946E2545A4B6C2207
:10131400E01809F011F88323D0221B01E552574B42
:101324000021E550564B9200E550564BE518280035
:1013340008F0FCFFE82352465B005349E2541C3397
:10134400E254524B0A689A421ED0434B15AD98465C
:101354000023994631006422280008F0EDFF4B4633
:101364006B6643466C22AB662900380008F0E4FF44
:10137400D92301222000DB00E25431B0F0BCBB468B
:10138400B246A946A046F0BD414B4A689A42DCD118
:10139400D3239B00CB583F4A9C463F480B780131EE
:1013A4005A4013049B185B009B18DB009B18DB005E
:1013B4009B185B009A188142F0D19445C5D1324BF9
:1013C4001A7A9146832249461201A1545B7A072B6B
:1013D40068D901230B4200D044E302220A4200D020
:1013E40035E303330B4200D026E34A46120700D507
:1013F40020E34A46D20600D511E34B469B0600D5AE
:101404000BE34B465B0600D505E3CB0900D0F6E2BF
:10141400224A2800A354D022214992000EF040FD14
:1014240093E7C0465C210120682101203822012075
:10143400740500007C050000EC0500005C0600005B
:10144400CC060000D4060000DC060000E406000020
:10145400CDAB3412EC06000052030000F406000089
:10146400FC06000002070000040700004C0700000F
:1014740054070000C2070000C4070000340800003D
:10148400380800003C08000000F01F1030385343B7
:1014940008005003C59D1C814CF31F103108000047
:1014A4000CF01F109A465246E44B2800E254D02216
:1014B400E34992000EF0F4FC4B465246D340DB075E
:1014C40000D442E7414615AD6C222800643108F08F
:1014D40033FF524668235343842212019446E3188F
:1014E40063441B681A00019380235B019A4200DA6B
:1014F40080E2D44B0193524668235343D24AE31803
:101504009A18126811004A1E9141D04A13919446C8
:1015140063441B681A000293E0231B019A4200DD16
:1015240002938023029A9B009A4200DA0293524665
:1015340068235343C64AE318944663441B689C4695
:1015440080235B019C4500DA4DE2BE4B9C4652462B
:1015540068235343852212019046E31843441868D4
:1015640080235B01984200DA39E2B6485246682388
:101574005343B84AE31890464344196880235B01F7
:10158400994200DA27E2AF49524668235343B24AEC
:10159400E318904643441A68802303925B019A42FD
:1015A40000DA13E2A74B0393524668235343AB4A32
:1015B400E318904643441B681A00049380235B019C
:1015C4009A4200DAFDE19F4B049352466823534349
:1015D400862212019046E31843441B681A000593BF
:1015E40080235B019A4200DAE6E1964B059352466A
:1015F400682353439A4AE318904643441B68994628
:1016040080231B01994501DB964B9946964B9945DE
:1016140000DA9946524668235343944AE3189046A5
:1016240043441B681A00069380235B019A4200DA44
:10163400BDE1844B06935246682353438C4AE31816
:10164400904643441B681A00079380235B019A4227
:1016540000DAA7E17B4B0793524668235343872262
:1016640012019046E31843441B681A000893802330
:101674005B019A4200DA90E1724B08935246682368
:1016840053437C4AE318904643441B681A00099369
:1016940080235B019A4200DA7AE16A4B099352464D
:1016A40068235343744AE318904643441B681A0062
:1016B4000A9380235B019A4200DA64E1614B0A9346
:1016C4005246682353436D4AE318904643441B68CB
:1016D4001A000B9380235B019A4200DA4EE1594BC6
:1016E4000B93524668235343882212019046E31811
:1016F40043441B681A000C9380235B019A4200DA6E
:1017040037E1504B0C935246682353435C4AE31829
:10171400904643441B681A000D9380235B019A4250
:1017240000DA21E1474B0D93524668235343554A4F
:10173400E318904643441B681A000E9380235B0110
:101744009A4200DA0BE13F4B0E935246682353430F
:101754004D4AE318904643441B681A000F938023B4
:101764005B019A4200DAF5E0364B0F935246682348
:101774005343892212019046E31843441B681A001C
:10178400109380235B019A4200DADEE02D4B109324
:101794005246682353433D4AE318904643441B682A
:1017A4001A00119380235B019A4200DAC8E0254BAA
:1017B4001193524668235343354AE31890464344F1
:1017C4001B681A00129380235B019A4200DAB2E08C
:1017D4001C4B12935246682353432E4AE3189046F7
:1017E40043441B68984680235B01984500DA9BE0DC
:1017F400144B98465246682353438A221201934657
:10180400E3185B441B681A0080235B019A4200DAE8
:1018140085E00C4B9B465246682353431E4AE3180B
:101824009246A82253441B68D201934200DD130060
:101834001A4A934234DA130032E0C04631080000F9
:101844000CF01F10FF0F00004408000048080000BF
:101854004C08000054080000580800005C08000010
:1018640064080000FF07000000F8FFFF680800009C
:101874006C08000074080000780800007C08000070
:1018840084080000880800008C0800009408000008
:10189400980800009C0800003C08000000D0FFFFEE
:1018A4001593019B68616B60139BA961AB60029BFC
:1018B4006422EB6063462B61039B2900EB61049B6C
:1018C40030002B62059B6B62069BAB62079BEB624D
:1018D400089B2B63099B6B630A9BAB630B9BEB63BA
:1018E4000C9B2B640D9B6B640E9BAB640F9BEB6496
:1018F400109B2B65119B6B65129BAB655B46EB657F
:1019040008F01AFDDF234A46DB00E2504246564BFC
:10191400E2500023554AA354554AA3521AE5D3432F
:10192400DB171A40934676E74346DB434246DB1710
:101934001A4090465EE7D343DB171A40129249E7F8
:10194400D343DB171A40119233E7D343DB171A4012
:1019540010921DE7D343DB171A400F9206E7D343D7
:10196400DB171A400E92F0E6D343DB171A400D92B0
:10197400DAE6D343DB171A400C92C4E6D343DB17F1
:101984001A400B92ADE6D343DB171A400A9297E64E
:10199400D343DB171A40099281E6D343DB171A407D
:1019A40008926BE6D343DB171A40079254E6D343FD
:1019B400DB171A4006923EE6D343DB171A40059222
:1019C40015E6D343DB171A400492FEE5D343DB1735
:1019D4001A400392E8E5CB43DB171940D4E5C3432F
:1019E400DB171840C2E56346DB436246DB171A4047
:1019F4009446ACE5D343DB171A4001927BE50723F9
:101A04009A4652461B4B2800E254D0221A499200AF
:101A14000EF046FA56E50623F2E70523F0E7154AE9
:101A24002800A354D022144992000EF039FA04235A
:101A34009A4647E50323E3E70E4B2800E254D022FD
:101A44000D4992000EF02CFA02239A463AE5094A0F
:101A54002800A354D022084992000EF021FA012351
:101A64009A462FE50023CBE7F4060000D9060000D0
:101A7400DA060000310800000CF01F10F0B54646ED
:101A8400D6464F4698460B780500C0B500200E0098
:101A9400002B04D1E0BCBA46B146A846F0BD002AEA
:101AA40000D15DE10A7C002A00D17DE1B6235B0010
:101AB4009946A9444B4680211B6C49018B4200DBAB
:101AC4002FE1D943C9170B40012A00D1FDE1022AB5
:101AD40000D1A2E100233374D14BBE21EA58DE23A6
:101AE40049005B00EB586F585F43BC233F0B5743DF
:101AF4005B00EB58FF12FF18F0231B019F4200DC30
:101B040022E11F00DC235B00EB585343099A1B13AB
:101B14009446A8229A46C34BD201EB58634493429D
:101B240000DD1300C04A934200DA1300FF211A12A9
:101B34001940002B00DB95E113000C3300D463E162
:101B44001300183300D462E11300243300D461E19C
:101B540004240C336442B5489A0082580B2B00D1FC
:101B6400D4E101339B00C0580023801A4843000A83
:101B740080180021AE4A08F065FA0A04000C0243FA
:101B8400002C00DCD1E0013C5200002CFBD1402AA7
:101B940000D240225146D30B59438B187268A54991
:101BA4009B181A0D73605018974200DCD6E0A249C6
:101BB400A24A9B0E5B009C5EDD23DB00EF58A04A2B
:101BC400A4107A439F4FBC466244EA50C0235B0092
:101BD400EB58120D4343C220400028581B134143C5
:101BE40009135B18C42149006958614309135B1840
:101BF40090498C46C6214900695862444A435213AD
:101C04009B1880225B101201934200DB8E4B894AA1
:101C1400934200DA13008D4AAA58002A0DDDDE2112
:101C24008020C900695840015943C912C91A824227
:101C340000DB874A4A4312139B184A46516B089AA1
:101C44004C4651434246E46A0913520012194C00AF
:101C54001219734C7F482F594C46646D7C43E4122F
:101C64001219F4686410121980246401A24267DB1B
:101C7400774A120A4C465200825AA46A924680223B
:101C8400444477695201944256DB714C240A64003F
:101C9400045BD81B60430013C0197061181A4B46CB
:101CA4001B6BB469C91880235B01994240DB684906
:101CB40052466143C912401A001B42431313802247
:101CC4001B19B3611201934200DB5F4B594A9342E3
:101CD40000DA1300E2225200A858B16800280EDD91
:101CE4004F4AAA5842438020000184468020D212E1
:101CF4006244400182422DDB554A51430913C822F4
:101D04004B435200A8581B135843802300131B0154
:101D1400984200DB4C48474B984200DBBAE6180077
:101D2400B8E64B4BD0E652080134002CFBD12EE729
:101D3400CB43DB171940BBE7E243D2171440A5E7B6
:101D4400D443E417224094E7FF2F00DDDAE680272E
:101D54007F00D7E6D043C0170240CEE73E4927E7CD
:101D6400B6235B009946A9444B4680225B6C3B49F1
:101D74005201934240DB364B1B0A5B00595A032342
:101D840080223374B36852015B1A934230DB304BC8
:101D94008022B360F36852015B1A934225DADA4376
:101DA400D2171340F36097E6B6235B009946A94423
:101DB4004B4680229B6B29495201934220DB244BE2
:101DC4001B0A5B005B5AB268F1689A185B005B18E7
:101DD4002349B260F3608A4203DD1D4AB2600122E6
:101DE4003274802252019342D9DB194BF36073E6BB
:101DF400DA43D2171340CBE7DA43D2171340BBE7D9
:101E0400DA43D2171340DBE701246442A3E6022439
:101E14006442A0E6032464429DE6B360F3605BE69B
:101E2400EC060000FC06000000D0FFFF282401207F
:101E3400314D590000F8FFFFDC0500005C2401204F
:101E44000D6619005FF36E3CFF070000F406000006
:101E5400FF0F00000824012024FAFFFFE8230120DB
:101E6400FE0F000013000B2A00DC91E00C3B0B2B4F
:101E740013DD0C3B0B2B26DD0C3B0B2B55DD0C3BF8
:101E84000B2B58DD0C3B0B2B57DD0C3B542A56D146
:101E9400404807240023026863E601243D489A0071
:101EA40082580B2B00D05CE680239B029B1A59437B
:101EB400080A80180023384A002108F0C3F80A04ED
:101EC400000C02435FE60224E8E74A468021D26B15
:101ED400324849018A422ADB314A120A5200105A16
:101EE400B26893422DDA121A93423EDC80214901F2
:101EF4008A4200DB2A4AF168B2608B423ADBF36023
:101F0400934200D0E8E502233374E5E580208002A3
:101F1400801A4843000A801800231F4A002108F051
:101F240091F80A04000C0243FFE60324B6E7D14308
:101F3400C9170A40D1E70424B0E70524AEE7062414
:101F4400ACE7F168B3608B420DDA4000091A8B42AA
:101F540009DC80225201914200DB1149F16099426F
:101F640000D0B9E5CFE7F360CDE7F168B3608B4209
:101F7400F9DA1A004000091A8B42C0DC80204001C3
:101F8400814200DB0649F160934200D0A4E5E6E714
:101F94000024E0E528240120314D5900E8230120E4
:101FA400FF0F0000D422F0B5474C0500A54440AC17
:101FB40000219200200008F0B9F9444BD02240934C
:101FC400434B9200419383231B01EB5A43A8238183
:101FD400404BE91808F0B0F92100FFA83E4A503000
:101FE4000B7801315A4013049B185B009B18DB00EB
:101FF4009B18DB009B185B009A188142F0D1D32315
:1020040036499B00E2500868304A904237D0EFF3DB
:10201400108772B68021324849010EF0AFFEFF25C9
:102024006B46304C6D445E1E8022FF216846520090
:1020340008F07CF902210123FF3104E0EA5CF25448
:1020440001338B420CD0A342F8D180226946264842
:1020540052000EF0DBFE87F31088244B9D44F0BD44
:10206400802223486946001B013C5200FF3C0EF0CD
:10207400CDFE23000135FF35AF33D5D1EBE7144A4C
:1020840048689042C3D1CC58134A1A480B7801319E
:102094005A4013049B185B009B18DB009B18DB0061
:1020A4009B185B009A188142F0D19442AFD1124937
:1020B4000A4B124A694402E001339342CDD0CC5C0E
:1020C40018788442F8D0A2E7ACFBFFFF30385343C2
:1020D400080050033C080000C59D1C8100F01F103F
:1020E40000F01F005103000000F31F00540400001F
:1020F40051F31F004CF31F100011E0EF50F31F10B9
:10210400F0B557464546DE464E463C23E0B5FF3320
:10211400C35CBBB01A000393534253418A2252005A
:10212400825A040012B20692862252008258012575
:1021340012B20492882252008258DBB212B2924642
:102144009C225200825C002A06D084225200825CC7
:10215400D5B2002A00D156E2039A002A00D079E1D0
:10216400DA21C9006258A448824200D83CE2012125
:10217400A24AA1540121A24AA154A24AA354A24AA8
:10218400A35801333F2B00D879E10023A350F8333F
:10219400E3580893FC23E3580B9380235B00E35834
:1021A4000A93F0239B009946A1444B461E68EF23F3
:1021B4009B009846A04443461B68BFF35F8F9E4232
:1021C40001D100F083FF1FAB9B4683239B009C46F9
:1021D400A44463460793B6235B009C46A444634629
:1021E4000995059303256C2335405D43A133671995
:1021F400FF33F9186C22584608F09EF8079B9C465A
:102204009D239B0065449C4667446D6E3F68BFF305
:102214005F8F4B4601361E6064225946059808F0CC
:102224008BF880231B019D4200DB784D784B9D4247
:1022340000DA1D00DF23DB00E55080235B019F42B1
:1022440000DAE3E1734F744BE022E7500023D2003D
:10225400A354724AA354724AA3524B461E6843467F
:102264001B68BFF35F8F9E42BCD1099D6D4BE35C3D
:10227400002B00D0E0E16C4A6C49A3588B4200D893
:10228400C8E10122674BE2525C4B0399E25C684B64
:10229400E35C8B4201D100F05EFF00235F4963548D
:1022A4005F496352624B0399E154624BE254DF236A
:1022B400DB00E3589846039B022B01D100F056FF44
:1022C400012B01D100F0C6FF002A46D0534BE35C3A
:1022D400002B13D1802380221B01434452019342DB
:1022E40001DA00F0B2FF4B4B089AD31ADA179B18A5
:1022F4005340602B0BDC0122484BE254444A089BB8
:10230400944663449846DF234246DB00E250444A45
:10231400A35C002B0AD1404B0B99E358CB1AD91775
:102324005B184B40602B04DC0123A3543A4B0B9AFB
:10233400E250414AA35C002B0BD1B933FF330A9915
:10234400E358CB1AD9175B184B40602B05DC0123EB
:10235400A354DC230A9A5B00E25000239946374BCE
:10236400069AE250043BE05C354BE35C002B01D061
:1023740000F0DBFDBA235B00E358002B01D000F032
:1023840020FE304B9A4202DCD343DB1713402E4924
:10239400DA00D218A82341445218DB019A4200DD26
:1023A4001A002A4B9A4200DA1A00002801D100F0E0
:1023B400BBFCB8235B00E658002E01DC00F0B4FC43
:1023C400802323495B016158501A9E4201DB00F0CF
:1023D40093FE104B9B1B5B431B145E1CB04201DD40
:1023E40000F08DFEDB43984201DB00F07AFF184BCE
:1023F4008A1BE25000F09DFC00770100D506000026
:10240400D6060000D4060000CC060000FF0700003A
:1024140000F8FFFFFF0F0000F4060000D9060000DB
:10242400DA06000038080000340800003202000018
:10243400DC060000DD060000DB06000004070000E7
:1024440001070000A906000000F4FFFF00D0FFFF11
:10245400FC060000C64AA25C002A00D0A7E0DA21EC
:102464000022C9006250C3496254C3496254C04A3D
:10247400A354C24AA35801333F2B00D985E6A35085
:10248400002D63D121002600D131ED36FF31FF3616
:10249400BB4BDC27E554E4235B00E058FF00430218
:1024A4009846DA23B7485B008446E258B648E359B5
:1024B400120263448446D218E251B44FB448E3593B
:1024C400920E634443445200E351175E9B0EB14A9B
:1024D4005B00A7501A5EDE23DB00E25082239B00E0
:1024E400E3582A00019353460093049B2000984626
:1024F400FFF7C4FAB62352465B00E3580700019382
:10250400009243462A0031002000FFF7B7FAF22375
:10251400E7520233A04AE052A04B1A605A60D0231B
:1025240080221B065200002D3BD15A61914BE35C83
:10253400002B30D1D02380221B0692005A613BB07D
:10254400F0BCBB46B246A946A046F0BD21008C4B68
:10255400D131E35CFF31002B25D14B600B748B68C8
:102564005F2B01DC60238B60CB687F2B01DC802335
:10257400CB6026000023ED36FF3673603374B368F6
:102584005F2B01DC6023B360F3687F2B00DD7FE702
:102594008023F3607CE7D02380221B0692009A619B
:1025A400CDE79A61C2E72600ED36FF3670E7DA22FE
:1025B400D200A2587A49013A8A4200D94FE7794AAF
:1025C400A25C002A00D04AE77749615C002900D167
:1025D40045E7DB200126C000215C7140215473498A
:1025E4006254734962523AE701326250E12189012F
:1025F4008A4200D23BE701205E4960546D498A4219
:1026040000D9B7E533E76C4A855CA5E5FB43DB17E6
:102614001F4018E60133A350BB2B0DD903990029A1
:102624000AD183231B01E35C002B05D001225D4BFF
:10263400E254624BE15404E05A4BE35C002B00D1BA
:1026440022E683231B01E15C01231A000A4007925E
:10265400CA081A4094460A091A40904648088E0847
:102664004A091A401F0018401E40079B09929946C8
:102674008A09099B174032184A44994662444244E5
:102684004A44B946C9094A4452180C97002A00D151
:10269400F7E58023089F5B019F4201DB00F029FDE1
:1026A400FB43DB173B4053431B0BDBB2934201D389
:1026B400013AD3B2079A002A05D0002B01D100F0C9
:1026C4001EFF013BDBB2002805D0002B01D100F036
:1026D40011FF013BDBB2002E05D0002B01D100F02D
:1026E40011FF013BDBB26246002A05D0002B01D169
:1026F40000F0D2FE013BDBB24246002A05D0002B9B
:1027040001D100F0CEFE013BDBB2099A002A05D0CC
:10271400002B01D100F0D6FE013BDBB20C9A002A5B
:1027240005D0002B01D100F0D2FE013BDBB2002921
:1027340050D0002B4ED10721072221482154214992
:102744002148096889B20160002107931D4B1B6869
:102754004B401B0C1C491B040B6007994B4259410D
:102764001A4B494219401A4B9C46614466E0C046E4
:10277400D4060000D5060000D6060000CC060000F2
:10278400D7060000865D01006CC11600E406000057
:102794005C240120EC06000083E70300F8260120F6
:1027A4003E3800003908000038080000D90600004F
:1027B400DA060000FF760100010700003A08000075
:1027C4003B08000070000540701005402000FFFF2A
:1027D400E0FF0000079B002B01D000F083FE0028DF
:1027E40001D000F090FC002E01D000F080FE634682
:1027F400002B01D000F050FE4346002B01D000F026
:1028040050FE099B002B01D000F05CFE0C9B002BBA
:1028140001D000F05CFE002901D000F078FEEF4BFF
:10282400EF4AE1541068EF4B43401B04EE481B0C85
:102834000360136800221B0C1B040360EB4B1B6832
:102844004B401B04EA491B0C0B6083231B01E35C14
:10285400D3400122110019401A4200D0E549E34B4C
:10286400E34A1B684B401B0CE3491B0413600B68D1
:10287400E24A1B041B0C13600968DE4B4B401B0C23
:102884001B041360DE4BE25C002A01D100F056FC0D
:10289400039B002B01D100F056FCD04BE65C072EC5
:1028A40000D93AE20B3BE35CF340DB0700D434E2AB
:1028B4006C225846D34907F03FFD84226823120155
:1028C40094467343E3186344186880235B01984279
:1028D40001DA00F048FDCC4868237343CB4AE3187F
:1028E4009A18126811004A1E9141C94A1D919446D2
:1028F40063441B681A001B93E0231B019A4200DD0A
:102904001B9380231B9A9B009A4200DA1B93682333
:10291400C04A73439446E31863441B689946802372
:102924005B01994501DA00F029FDB74B99468522F0
:102934006823120194467343E31863441B681A0026
:10294400079380235B019A4201DA00F011FDAE4B3C
:1029540007936823B04A73439446E31863441B689F
:102964001A00099380235B019A4201DA00F086FD84
:10297400A54B09936823A94A73439446E318634417
:102984001B681A000C9380235B019A4201DA00F061
:102994006FFD9D4B0C936823A14A73439446E3183F
:1029A40063441B681A000D9380235B019A4201DA89
:1029B40000F058FD944B0D9386226823120194462F
:1029C4007343E31863441B681A000E9380235B016E
:1029D4009A4201DA00F040FD8B4B0E936823914A32
:1029E40073439446E31863441B681A001C938023C2
:1029F4001B019A4201DB8C4B1C938C4B1C9A9A4210
:102A040000DA1C9368238A4A73439446E3186344A8
:102A14001B681A000F9380235B019A4201DA00F0CD
:102A240015FD794B0F936823824A73439446E31848
:102A340063441B681A00109380235B019A4201DAF5
:102A440000F0FEFC704B1093872268231201944619
:102A54007343E31863441B681A00119380235B01DA
:102A64009A4201DA00F0E6FC674B11936823724A3C
:102A740073439446E31863441B681A00129380233B
:102A84005B019A4201DA00F0CFFC5F4B129368239A
:102A94006A4A73439446E31863441B681A00139309
:102AA40080235B019A4201DA00F0B8FC564B139381
:102AB4006823634A73439446E31863441B681A000B
:102AC400149380235B019A4201DA00F0A1FC4E4B7F
:102AD400149388226823120194467343E3186344D1
:102AE4001B681A00159380235B019A4201DA00F0F7
:102AF40089FC454B15936823524A73439446E31863
:102B040063441B681A00169380235B019A4201DA1E
:102B140000F072FC3C4B169368234B4A7343944673
:102B2400E31863441B681A00179380235B019A42DD
:102B340001DA00F03DFC344B17936823434A734396
:102B44009446E31863441B681A00189380235B01BE
:102B54009A4201DA00F026FC2B4B18938922682351
:102B6400120194467343E31863441B681A001993D3
:102B740080235B019A4201DA00F00EFC224B199388
:102B84006823334A73439446E31863441B681A006A
:102B94001A9380235B019A4201DA00F0F7FB1A4B87
:102BA4001A9368232B4A73439046E31843441968E5
:102BB40080235B01994200DACDE313496823264A56
:102BC40073439046E31843441B68984680235B0193
:102BD400984500DAB8E30C4B98463FE03B08000008
:102BE40070000540E0FF00007010054084000540BF
:102BF400841005400000E0FF98000540981005404F
:102C04003A080000CC210120FF0F00004408000016
:102C1400480800004C080000540800005808000050
:102C24005C08000064080000FF07000000F8FFFFD4
:102C3400680800006C0800007408000078080000B0
:102C44007C08000084080000880800008C0800004C
:102C540094080000980800009C0800008A22682359
:102C6400120194467343E31863441A6880235B019A
:102C74009A4200DA73E3DD4A6823DD4F7343BC46AE
:102C8400A827E31863441B68FF01BB4200DD3B0037
:102C9400D84FBB4200DA3B001F935B4658601D9837
:102CA40098601B98D860484618610798586109983D
:102CB40098610C98D8610D9818620E9858620F9814
:102CC40098621098D86211981863129858631398F0
:102CD40098631498D86315981864169858641798CC
:102CE400996598641898DA65D86419986422186507
:102CF4001A9859465865059807F01EFBDF231C9A5D
:102D0400DB00E2504246BC4BE250E0220023D200FA
:102D1400A354BA4AA354BA4AA352BA4B2000E65465
:102D2400FFF740F9FFF7ADFA0121B74BE250043346
:102D3400E154FF21002613121140002A16DA013E45
:102D44000C33FCD4B1489A0082580B2B1AD1802042
:102D54008002801A4843000A801800230021AC4AEC
:102D640007F070F90904000C0143D3E00B2BE9DDF3
:102D74000C3B01360B2BFBDCA4489A0082580B2B2E
:102D840000D1ADE101339B00C058801A4843000ACA
:102D94008018002300219E4A07F054F90904000C0E
:102DA4000143002E00DCB5E0013E4900002EFBD1BA
:102DB400402900D24021E6235B00E1504B46002B22
:102DC4007CD1DB23DB00E25C039B022B00D164E1BA
:102DD400012B00D1A8E1802380211B014344490138
:102DE4008B4200DB7FE1D943C9170B40DC208249C9
:102DF40040006158205880267601B34200DA90E002
:102E04007A4B5B43834E1B1237687B401B04824F13
:102E14001B0C3B6053425A41922352421B051A40F9
:102E24007E4B9C463368624453401B0C1B043B603E
:102E340080235B01994270DB6C494943784A0B1249
:102E44001668784973401B041B0C0B606C4B1268AA
:102E5400E35C5E42734198265B42B60433406F4E96
:102E6400B446634453401B0C1B040B606E4BE35C81
:102E7400002B00D0B7E080235B01984200DAAEE07B
:102E84005A4B5B431B12694A11684B401B04684947
:102E94001B0C0B60674B1268E35C5842434198205B
:102EA4005B42800403405D488446634453401B0CEA
:102EB4001B040B60DF23DB00E3589846642258466A
:102EC400059907F039FA4C4BE2585B4BE718E318C5
:102ED4003E685B68BFF35F8FF31A042B01D1FFF7E1
:102EE400CFFA5B4641469A66596603236C20334009
:102EF4005843F1239B009C4620186C225946604499
:102F040007F01AFABFF35F8F01363E60FFF7B8FA95
:102F140049080136002EFBD14AE7CB43DB171940A1
:102F24008BE7DE43F61733406BE7444BE35C243B0B
:102F34001B0243441A00A823DB019A4200DD1A0055
:102F44002C4B9A4200DA1A00002818D0B8235B00F0
:102F5400E658002E13DD80232B495B016158501A7B
:102F64009E4200DB214E214B9B1B5B431B145E1CCA
:102F7400B04200DCAEE1244B8A19E25004E00121A6
:102F8400214BE2500433E154FF2100261312114077
:102F9400002A5BDA013E0C33FCD41C489A008258A8
:102FA4000B2B5FD180208002801A4843000A8018CE
:102FB40000230021164A07F045F80904000C0143D8
:102FC40068E013008022D200934200DB1C4B1D4AB0
:102FD400934200DA1300C0214901FFF7D9F9C34332
:102FE400DB1703404DE7184B4DE7C046FF0F0000C9
:102FF4003C08000000D0FFFFF4060000D9060000E2
:10300400DA06000031080000FC0600002824012034
:10301400314D590070000540701005400000E0FF7C
:103024008400054084100540D60600009800054041
:1030340098100540DB06000074050000020700003C
:10304400FF03000001FCFFFFE0FF00000B2BA4DDE9
:103054000C3B01360B2BFBDCD8489A0082580B2B17
:1030640000D180E001339B00C058801A4843000A15
:10307400801800230021D24A06F0E4FF0904000C62
:103084000143002E06DD013E4900002EFBD18FE6F0
:1030940049080136002EFBD18AE6002A25D1822375
:1030A4009B00E358802109018C4680219B106344D6
:1030B40049018B4234DBC34BC348BC218446BE2048
:1030C4004900615840002058614494E61FAB9B4678
:1030D400B6235B009C46A44463460593FFF7C6F8F9
:1030E4008020800251E6B74B80E66B33FF33E35810
:1030F400D8E7B44BFFF7D7FAB24EFFF76AF9B34BF0
:103104008A19E25015E601210122B14BE154B14B79
:103114001B68B1491B041B0C0B60B049FFF716FB7D
:10312400D943C9170B40C7E7CC21CE209433FF33D2
:1031340049004000E358615820585CE6039A002A8D
:1031440001D00122E254DF23DB00E3589846012337
:103154009946FFF704F9A24BE35C934201D0FFF7D1
:103164009CF8FFF7A4F8802080027EE79D4BE25C88
:10317400013BE35C002B00D1B6E0002A17D180228A
:10318400B6231201944680225B00E35852019B103F
:103194006344934200DA7BE18A4B089AD31ADA1724
:1031A4009B185340602B13DC01228E4BE2548E4A51
:1031B400089B9446A82263449B00D201934200DDFD
:1031C40013008A4A934200DA1300B6225200A35035
:1031D400874AA35C002B0ED17B4979338C46FF339D
:1031E400E3580B996344CB1AD9175B184B40602BF7
:1031F40013DC0123A354802292009446E0220B9B0B
:1032040012016344934200DD130080229200934232
:1032140000DA1300BC225200A350764AA35C002BB0
:103224000DD17D33FF330A99E358CB1AD9175B18B4
:103234004B40602B01DDFFF790F80123A354BE231C
:103244000A9A5B00E250FFF788F8DA43D21713407A
:10325400FFF74AF8634AA35C002B0BD19533FF3385
:103264000899E358CB1AD9175B184B40602B05DC3F
:10327400039BA354CA23089A5B00E2505C4AA35CF4
:10328400002B0BD19933FF330B99E358CB1AD91781
:103294005B184B40602B05DC0123A354CC230B9A11
:1032A4005B00E250534AA35C002B0DD19D33FF33E6
:1032B4000A99E358CB1AD9175B184B40602B01DDF0
:1032C400FFF74BF80123A354CE230A9A5B00E25084
:1032D400FFF743F8DB43984233DA3C4B8A1BE25056
:1032E40052E63A4BE25024E5002A18D18022822388
:1032F4001201944680229B00E35852019B106344C0
:10330400934200DAC0E02F4B089AD31ADA179B18BD
:103314005340602B00DD5BE70122324BE254324A1A
:10332400089B9446A82263449B00D201934200DD8B
:1033340013002E4A934200DA130082229200A35013
:1033440046E7224BE2501FE64346DB434246DB1787
:103354001A40904682E4CB43DB1719402EE4D34352
:10336400DB171A4088E4C343DB171840FFF7B4FAAD
:10337400D343DB171A400792FFF7EBFA4B46DB43C4
:103384004A46DB171A409146FFF7D1FAD343DB17BD
:103394001A401A92FFF705FCD343DB171A4019921F
:1033A400FFF7EEFBD343DB171A401892FFF7D6FB67
:1033B400D343DB171A401792FFF7BFFB28240120E1
:1033C400314D5900FF0F000000FEFFFFFC06000016
:1033D4003B08000070000540701005400000E0FF4D
:1033E400DD060000D906000000F8FFFF00D0FFFF53
:1033F400DA060000DB060000D343DB171A401692FE
:10340400FFF78AFBD343DB171A401592FFF773FBD0
:10341400D343DB171A401492FFF75BFBD343DB174C
:103424001A401392FFF744FBD343DB171A4012925E
:10343400FFF72DFBD343DB171A401192FFF716FB5E
:10344400D343DB171A401092FFF7FEFAD343DB177E
:103454001A400F92FFF7E7FAD343DB171A400E9294
:10346400FFF7BCFAD343DB171A400D92FFF7A4FA17
:10347400D343DB171A400C92FFF78DFAD343DB17C3
:103484001A400992FFF776FADA43D21713403BE762
:10349400DA43D217134080E6032103220423FFF703
:1034A4004CF904210423042207911A4963541A4B4A
:1034B40019681A4B4B401B0419491B0C0B60002163
:1034C400FFF744F904230521052207931DE604238D
:1034D4000621062207930F4BE1540F4B19680F4B3B
:1034E4004B4016E60021002300220791DDE702216C
:1034F4000222F0E7002301210122079305E60022BE
:103504000792D2E70023022102220793E3E7002374
:10351400FFF711F93B08000070000540E0FF0000D0
:1035240070100540F0B5DE4657464E464546E0B5B8
:103534006420CBB005F0A2FEF023F04FFB5C0C2B13
:1035440001D001F0FFFCD0231B065A68802314002D
:103554005B031C401A4200D081E202232FAE338069
:10356400310020000AF086F9BD23DB00FB5CA14694
:10357400002B00D082E21FAB9B46E14B0493E14B4E
:1035840003934B46002B2DD1BD25ED0001200021D6
:1035940040420BF0ABF87B5D002BF7D0EF24F02317
:1035A400A4009B003D59FB58BFF35F8FEB1A042B1B
:1035B400E7D003236C202B40584383239B009C4675
:1035C400D14B38186C226044F91806F0B5FEBFF3ED
:1035D4005F8FBD230022DB00FA544B4601353D5179
:1035E400002BD1D0E923DB009A464B4600930120FF
:1035F400AF250021404207F0FBFAC44BED007C5993
:10360400FB58BFF35F8FA34225D003239846693349
:10361400994641464B4621405943F1239B009C4621
:1036240079186C223000614406F086FEBFF35F8F88
:10363400B74B6C22F818310001347C5106F07CFE43
:10364400CB230122DB00FA54B04B7C59FB58BFF367
:103654005F8F9C42DDD1F824E4003B5D002B01D058
:1036640000F0F5FFAB4BFB5C002B01D000F052FEE9
:10367400A94BFB5C002B00D1B8E1A84BFB5C002BF1
:1036840001D001F099F8CB23DB00FB5C002B00D1C7
:10369400ACE19F4BFB188021002209018C4680215C
:1036A400F287053232729E4A49012F929D4A309226
:1036B4001A68921062448A4201DA00F013FE9A4AB0
:1036C4007F21114071728021D209B2725A68490176
:1036D4008A4201DA00F001FE934A7F211140F1721F
:1036E4008021D20932739A6849018A4201DA00F0D2
:1036F400EFFD8D4A7F21114071738C49D2098C46AC
:103704008021B273DA68490162448A4201DA00F026
:10371400DAFD854A7F211140F1738021D209327488
:103724001A6949018A4201DA00F0C8FD7E4A7F2104
:10373400114071748021D209B2745A6949018A42D4
:1037440001DA00F0B6FD784A7F211140F17480213E
:10375400D20932759A6949018A4201DA00F0A4FD5E
:10376400714A7F21114071758021D209B275DA69DD
:1037740049018A4201DA00F092FD6B4A7F2111402F
:10378400F1758021D20932761A6A49018A4201DA36
:1037940000F080FD644A7F21114071768021D209B6
:1037A400B2765A6A49018A4201DA00F06EFD5E4A35
:1037B4007F211140F176802109018C468021D209B4
:1037C40032775A6E490162448A4201DA00F058FDA8
:1037D400554A7F21114071778021D209B2779A6AC4
:1037E40049018A4201DA00F046FD4F4A7F21114027
:1037F400F1772021D20972548021DA6A49018A4280
:1038040001DA00F033FD484A7F2121201140315470
:103814002221D209725480211A6B49018A4201DAA9
:1038240000F01FFD404A7F21232011403154242100
:10383400D209725480215A6B49018A4201DA00F09C
:103844000BFD394A7F212520114031542621D2090C
:10385400725480219A6B49018A4201DA00F0F7FC24
:10386400314A7F212720114031542821D209725432
:103874008021DA6B49018A4201DA00F0E3FC2A4A2A
:103884007F212920114031542A21D20972548021E8
:103894001A6C49018A4201DA00F0CFFC224A7F21E6
:1038A4002B20114031542C21D209725480215A6C9E
:1038B40049018A4201DA00F0BBFC1B4A7F212D201A
:1038C400114031542E21D209725480219A6C49013D
:1038D4008A4201DA00F0A7FC134A7F212F2011400D
:1038E40031543021D20972548021DA6C49018A4260
:1038F40001DA00F093FC0C4A1AE0C046D02D0120F6
:10390400901C0120682101207C0500007405000042
:10391400EC050000C1070000520700005307000037
:10392400F07D43533830047FFF0F000000FEFFFF9B
:103934007F213120114031543221D2097254802127
:103944001A6D49018A4201DA00F063FCB14A7F2111
:103954003320114031543421D209725480215A6DDC
:1039640049018A4201DA00F04FFCAA4A7F2135203E
:10397400114031543621D209725480219A6D490183
:103984008A4201DA00F03BFCA24A7F213720114031
:1039940031543821D209725480219A6E49018A42E5
:1039A40001DA00F027FC9B4A7F2139201140315471
:1039B4003A21D20972548022DB6D5201934201DA1A
:1039C40000F013FC934B7F223B211A4072543C229B
:1039D400DB09B3543D23BB32F254002132000133DE
:1039E400002007F003FF00228B4BFA5240235A4673
:1039F4000021002007F05AFE002827D058445D46D5
:103A04000400B0460BE05046511C3950E121C90076
:103A14008C46BA18624413700135A54215D02B7830
:103A2400F72BF9D8F02B30D07C4ABA5C002A33D07B
:103A3400F72B00D10CE15246BA583F2AE3D90123AF
:103A4400774A0135BB54A542E9D14646BD23DB0084
:103A5400FB5C002B00D1CAE5009B99469EE501233F
:103A6400994601232FAE33803100002007F044F83B
:103A7400BD23DB00FB5C002B00D17CE51FAB9B4628
:103A8400684B0493684B039388E500235246BB506C
:103A9400624A0133BB52BFE759B2002901DA00F090
:103AA4008FFE0F206149795C8143802901D100F0A8
:103AB4008FFE902901D100F0AEFEB02901D100F0B3
:103AC400F7FEE029A8D15A4EB95D8946481C5949E8
:103AD400B9448C464946C0B26144B8550B700128BC
:103AE4009AD96346BA55FB5C0193EA23DB00FB5C7D
:103AF4000293AF23DB00FE584F4BFB58BFF35F8F9D
:103B04009E4226D0AF23DB00994603216C2331402B
:103B14005943F1239B009C4679186C22404661442A
:103B240006F00AFCBFF35F8F4B460136FE50434B51
:103B34006C22F818414606F0FFFBCB230122DB0080
:103B4400FA544B46FE583C4BFB58BFF35F8F9E42E2
:103B5400DBD1CB23DB00FB5C002B01D101F096FD14
:103B6400374B6C22F818354BF91806F0E5FBD923CE
:103B74000122DB00FA54FE22029B9201DB01134076
:103B84007F2201996C2611402E4A0B4394460F2143
:103B94006344DA170A40D318D8221B11D200BB5051
:103BA400274B3200F918284806F0C6FBBD22012332
:103BB400D200BB54EF239B00F85804338146FB58D2
:103BC400BFF35F8FC31A042B17D04B460320184052
:103BD40083239B009C467043381832001A49604482
:103BE40006F0AAFBBFF35F8FEF214846BD22431CBA
:103BF40089007B500023D200BB546C22134BF8186D
:103C04000F4BF91806F098FB0222034BFF32FA52CD
:103C140002E7C046FF0F0000520700004C070000F7
:103C24004D070000901C0120682101204E07000070
:103C3400510700004F07000074050000EC05000068
:103C44005C06000000E0FFFF4C3301205407000035
:103C54000023F24ABB54F24BFB5C002B00D0DBE6A2
:103C6400E923DB00FB58052B00D8D5E6443ABA5CBF
:103C74007D2A00D0D0E6EB4ABA5C432A00D0CBE6DA
:103C8400E94ABA5C532A00D0C6E6E84ABA5C382A44
:103C940000D0C1E6E64ABA5C302A00D0BCE6E54A68
:103CA400BA5C012A01D100F07BFE022A01D101F0A5
:103CB40051F9052A01D101F04DF9032A01D101F08E
:103CC4009EFC062A01D101F000FD082A00D06DE215
:103CD400072B00D0A0E6D84ABE5C1E4083231B01FC
:103CE400FB5CF340DB0700D496E603996C22404664
:103CF400643106F021FB8422682312019446734345
:103D0400FB1863441B681A00019380235B019A42E9
:103D140001DA01F04FFEC94B019368237343C84A8B
:103D2400FB189A18126811004A1E9141C54A18914D
:103D3400944663441B681A000293E0231B019A42D1
:103D440000DD02938023029A9B009A4200DA0293D8
:103D54006823BD4A73439446FB1863441868802360
:103D64005B01984201DA01F020FEB4488522682301
:103D7400120194467343FB186344196880235B0162
:103D8400994201DA01F0BAFEAC496823AF4A7343A1
:103D94009446FB1863441A68802305925B019A4297
:103DA40001DA01F0A4FEA54B05936823A84A7343E6
:103DB4009446FB1863441B681A00069380235B0136
:103DC4009A4201DA01F08CFE9C4B06936823A14AC7
:103DD40073439446FB1863441B681A0007938023BB
:103DE4005B019A4201DA01F074FE944B0793862238
:103DF4006823120194467343FB1863441B681A003A
:103E0400089380235B019A4201DA01F05BFE8B4B3D
:103E140008936823904A73439446FB1863441B68D1
:103E24001A00099380231B019A4201DB8B4B0993EF
:103E34008B4B099A9A4200DA09936823894A73439F
:103E44009446FB1863441B681A000A9380235B01A1
:103E54009A4201DA01F02FFE784B0A936823824AD2
:103E640073439446FB1863441B681A000B93802326
:103E74005B019A4201DA01F017FE704B0B93872223
:103E84006823120194467343FB1863441B681A00A9
:103E94000C9380235B019A4201DA01F0FEFD674B2B
:103EA4000C936823714A73439446FB1863441B685C
:103EB4001A000D9380235B019A4201DA01F0E6FDBA
:103EC4005E4B0D9368236A4A73439446FB1863441C
:103ED4001B681A000E9380235B019A4201DA01F0F9
:103EE400CEFD564B0E936823624A73439446FB18E7
:103EF40063441B681A000F9380235B019A4201DA22
:103F040001F0B6FD4D4B0F938822682312019446AD
:103F14007343FB1863441B681A00109380235B01EE
:103F24009A4201DA01F09DFD444B10936823524AF2
:103F340073439446FB1863441B681A00119380234F
:103F44005B019A4201DA01F085FD3C4B1193682331
:103F54004A4A73439446FB1863441B681A0012933D
:103F640080235B019A4201DA01F06DFD334B129319
:103F74006823434A73439446FB1863441B681A003E
:103F8400139380235B019A4201DA01F055FD2B4B18
:103F9400139389226823120194467343FB186344E4
:103FA4001B681A00149380235B019A4201DA01F022
:103FB4003CFD224B14936823324A73439446FB1806
:103FC40063441B681A00159380235B019A4201DA4B
:103FD40001F0B4FC194B159368232B4A73439446A0
:103FE400FB1863441B681A00169380235B019A42F2
:103FF40001DA01F09CFC114B16936823234A7343A6
:104004009446FB1863441B68994680235B019945D9
:1040140001DA01F084FC094B994639E04C070000B1
:104024004D070000090700000A0700000B07000005
:104034000C0700000D0700000E070000FF0F000032
:1040440044080000480800004C0800005408000020
:10405400580800005C08000064080000FF07000026
:1040640000F8FFFF680800006C08000074080000F6
:10407400780800007C08000084080000880800001C
:104084008C08000094080000980800009C080000B8
:104094008A226823120194467343FB1863441B6805
:1040A4001A00179380235B019A4201DA01F030FC75
:1040B4008F4B179368238F4A73439446A822FB18A7
:1040C40063441B68D201934200DD13008A4A934281
:1040D40000DA1300424613604346019A18615A609D
:1040E400189A59619A60029A4146DA60059A9A616F
:1040F400069ADA61079A1A62089A5A620A9A9A62C6
:104104000B9ADA620C9A1A630D9A5A630E9A9A639E
:104114000F9ADA63109A1A64119A5A64129A7748B9
:104124009A64139ADA64149A1A65159A5A65169A57
:104134009A65179ADA65099A5A664A469A666C230A
:1041440099461A0006F0F8F84A466C496C4806F09D
:10415400F3F8BD220123D200BB54EF239B00FA588D
:104164000433FB58BFF35F8FD31A042B18D00320FA
:104174004B4610405843A133FF339C4638180192F4
:104184005F494A46604406F0D7F8BFF35F8FEF21DA
:10419400019A8900531CBD227B500023D200BB54DA
:1041A4000122584BFE54584BFA5435E40A2A01D0E4
:1041B40001F04DFA072B00D02EE4544A8320BA5C58
:1041C40000011A40063B9340395C9943504B3954E3
:1041D400FB5C934201D101F0D3FB3800FDF7E2FE12
:1041E400F8230122DB00FA5416E4DA43D217134011
:1041F400FFF7E9FBD143C9170A40FFF7D5FBD143C9
:10420400C9170A40FFF7C1FBD143C9170A40FFF79A
:10421400ADFBD143C9170A40FFF799FBD143C91736
:104224000A40FFF785FBD143C9170A40FFF755FB46
:10423400D143C9170A40FFF741FBD143C9170A40CC
:10424400FFF72DFBD143C9170A40FFF719FBD143F0
:10425400C9170A40FFF705FBD143C9170A40FFF706
:10426400F1FAD143C9170A40FFF7DDFAD143C91760
:104274000A40FFF7C9FAD143C9170A40FFF7B6FA53
:10428400D143C9170A40FFF7A4FAD143C9170A401A
:10429400FFF78EFAD143C9170A40FFF77CFAD143DE
:1042A400C9170A40FFF76AFAD143C9170A40FFF752
:1042B40058FAD143C9170A40FFF746FAD143C91740
:1042C4000A40FFF734FAD143C9170A40FFF722FA2C
:1042D400D143C9170A40FFF70DFAD143C9170A4061
:1042E400FFF7FBF9D143C9170A40FFF7E9F9C046C4
:1042F400FF0F00003C08000000D0FFFF94350120B0
:104304004C330120C2070000C10700000E07000063
:1043140031080000E94BFA5C0023F387E84B2F9344
:10432400E84BB380052333720433B37176331340FF
:104334008022120194468022F371E34B5201FB5810
:104344009B106344934200DA32E2E04B7F221A402E
:10435400DB09B372F92372728022DB00FB5852012D
:10436400934200DA20E2D94B7F221A40F272802273
:10437400DB093373D64B5201FB58934200DA0FE248
:10438400D24B7F221A40DB09B373FA237273D14AEA
:10439400DB0094468022FB5852016344934200DAC6
:1043A400FAE1CA4B7F221A40F2738022DB0933748C
:1043B400C94B5201FB58934200DAE9E1C34B7F2217
:1043C4001A40DB09B374FB2372748022DB00FB58B0
:1043D4005201934200DAD7E1BC4B7F221A40F274B7
:1043E4008022DB093375BD4B5201FB58934200DA3E
:1043F400C6E1B64B7F221A40DB09B375FC23727504
:104404008022DB00FB585201934200DAB4E1AF4B47
:104414007F221A40F2758022DB093376B04B5201B9
:10442400FB58934200DAA3E1A84B7F221A40DB0930
:10443400B376FD2372768022DB00FB58520193424F
:1044440000DA91E1A14B7F221A40F2768022120118
:1044540094468022DB093377A24B5201FB58634414
:10446400934200DA7CE1994B7F221A4072778022D2
:10447400DB09B3779C4B5201FB58934200DA6BE1A2
:10448400924B7F221A40F2772022DB09B354FE2399
:104494008022DB00FB585201934200DA58E18B4B37
:1044A4007F2221211A4072542222DB09B354802234
:1044B4008E4B5201FB58934200DA45E1834B7F2235
:1044C40023211A4072542422DB09B354FF2380228F
:1044D400DB00FB585201934200DA31E17B4B7F222F
:1044E40025211A4072542622DB09B3548022804BC2
:1044F4005201FB58934200DA1EE1744B7F222721BC
:104504001A4072542822DB09B354802380221B01F1
:10451400FB585201934200DA0AE16C4B7F222921B5
:104524001A4072542A22DB09B3548022714B52017F
:10453400FB58934200DAF7E0644B7F222B211A40A8
:1045440072542C22DB09B35480226B4B5201FB586A
:10455400934200DAE4E05D4B7F222D211A4072542D
:104564002E22DB09B3548022644B5201FB58934240
:1045740000DAD1E0554B7F222F211A4072543022A9
:10458400DB09B354812380221B01FB58520193425F
:1045940000DA8EE04D4B7F2231211A4072543222D0
:1045A400DB09B3548022564B5201FB5893427CDB07
:1045B400464B7F2233211A4072543422DB09B35410
:1045C4008022504B5201FB5893426ADB3F4B7F22BF
:1045D40035211A4072543622DB09B35480224A4BE7
:1045E4005201FB58934258DB384B7F2237211A4043
:1045F40072543822DB09B3548022444B5201FB58D5
:10460400934246DB314B7F2239211A4072543A22BD
:10461400DB09B354822380221B01FB5852019342CD
:1046240033DB2A4B7F223B211A4072543C22DB09A4
:10463400B3543D23BB32F254002132000133002035
:1046440007F0D4F80022324BFA54FFF711F8F7229E
:104654001B4B7F212F931B4BB272B3808322072302
:104664001201B371BA5C00201140D2093272294A96
:10467400F171BA5C00211340737232000B2307F00E
:10468400B5F800233B55FEF7EDFFDA43D21713408C
:10469400C8E7DA43D2171340B5E7DA43D217134019
:1046A400A3E7DA43D217134091E7DA43D217134052
:1046B4007FE7DA43D21713406DE7C046C207000014
:1046C400F07D435338300000C4070000FF0F0000A2
:1046D400CC07000000FEFFFFD4070000DC07000049
:1046E400E407000028080000EC070000F4070000BD
:1046F400FC07000004080000080800000C08000083
:1047040014080000180800001C0800002C08000011
:10471400C107000031080000DA43D21713402AE72A
:10472400DA43D217134017E7DA43D217134004E7EA
:10473400DA43D2171340F1E6DA43D2171340DDE629
:10474400DA43D2171340CAE6DA43D2171340B6E667
:10475400DA43D2171340A3E6DA43D217134090E6A4
:10476400DA43D21713407FE6DA43D21713406AE6DE
:10477400DA43D217134058E6DA43D217134047E618
:10478400DA43D217134035E6DA43D217134024E64E
:10479400DA43D217134012E6DA43D217134001E684
:1047A400DA43D2171340ECE5DA43D2171340DBE5C2
:1047B400DA43D2171340C9E5704BFB18FEF76BFFC1
:1047C400EF2B6FD86E497B546E4BFA54FFF724F9E4
:1047D4006C4EB95D8946481C6B49B9448C464946C0
:1047E400C0B26144B8550B70012801D8FFF714F921
:1047F400BA55664BFA5C002A01D1FFF70DF9624AFB
:10480400B95C634ABA5C914201D0FFF705F9002212
:10481400FA54FFF701F95B4EB95D8946481C5A49C1
:10482400B9448C464946C0B26144B8550B7001285E
:1048340001D8FFF7F1F8EA23BA55DB00FB5C002B43
:10484400D7D0514BF95C524BF95401214F4BF954D9
:10485400EA235B00FA500C33FA54083BFA585F2AF7
:1048640001DC6022FA50EE235B00FA587F2A01DC57
:104874008022FA50F82200235200BB500C32BB5461
:10488400F533FF33FA585F2A01DC6022FA50FC2327
:104894005B00FA587F2A01DDFFF7BEF88022FA5048
:1048A400FFF7BAF8364BFA54364BFA54FFF7B4F81C
:1048B400344EB95D8946481C3349B9448C4649464F
:1048C400C0B26144B8550B70012801D8FFF7A4F8B1
:1048D4006346BA55FB5C0193EA23DB00FB5C02935D
:1048E400AF23DB009946FE582A4BFB58BFF35F8F7A
:1048F4009E421DD003216C2331405943F1239B0078
:104904009C4679186C224046614405F015FDBFF3BE
:104914005F8F4B460136FE501F4B6C22F818414600
:1049240005F00AFDCB230122DB00FA544B46DAE7FB
:10493400CB23DB00FB5C002B01D100F069FE174B9D
:104944006C22F818144BF91805F0F6FCD92301224F
:10495400DB00FA547F26029B310033401803C01A4F
:1049640005F0BAFA019B3340013BDBB25C2B01D961
:10497400FFF752F8049A9B00D3589F46540700004F
:104984004E070000510700004F0700000107000018
:104994000207000074050000EC0500005C0600003E
:1049A4003B2B01D0FFF738F8EA4BFB5C052B01D019
:1049B400FFF732F803996B326431404605F0BCFCD2
:1049C400E2237F21E44ADB00FB5CBA5C0B400A4033
:1049D400DB01134380225201934201DB00F0DBFE32
:1049E400DE4A7F21944663449B001893DC4BDD4AE6
:1049F400FB5CBA5C0B40DB010A40134399468023FD
:104A04005B01994501DB00F0C2FE7F22D64BD749FA
:104A1400FB5C795C13401140DB010B4319004B1E16
:104A24009941D34B1B91D349FB5C795C1340DB0167
:104A34000A40134380225201934201DB00F0A4FE9A
:104A440080229200944663441A000193E0231B01E0
:104A54009A4201DD00F095FEE3237F21C64ADB0084
:104A6400FB5CBA5C0B400A40DB0113431A0002935F
:104A740080235B019A4201DB00F07FFE7F21BF4B64
:104A8400BF4AFB5CBA5C0B400A40DB0113431A00CB
:104A9400059380235B019A4201DB00F06AFE7F21CB
:104AA400B84BB94AFB5CBA5C0B400A40DB011343C8
:104AB4001A00069380235B019A4201DB00F055FE45
:104AC4007F21B24BB24AFB5CBA5C0B400A40DB016B
:104AD40013431A00079380235B019A4201DB00F021
:104AE40040FEE4237F21AB4ADB00FB5CBA5C0B4055
:104AF4000A40DB0113431A00089380235B019A42A6
:104B040001DB00F02AFE7F21A34BA44AFB5CBA5CC4
:104B14000B400A40DB0113431A00099380235B0115
:104B24009A4201DB00F015FE7F219D4B9D4AFB5C00
:104B3400BA5C0B400A40DB011343802252019342CA
:104B440001DB00F003FE854A7F21944663441993F8
:104B5400954B964AFB5CBA5C0B400A40DB0113435D
:104B64001A000A9380235B019A4201DB00F0EAFDFC
:104B7400E5237F218E4ADB00FB5CBA5C0B400A40D4
:104B8400DB0113431A000B9380235B019A4201DB80
:104B940000F0D4FD7F21874B874AFB5CBA5C0B4055
:104BA4000A40DB0113431A000C9380235B019A42F1
:104BB40001DB00F0BFFD7F21804B814AFB5CBA5CC6
:104BC4000B400A40DB0113431A000D9380235B0161
:104BD4009A4201DB00F0AAFD7F217A4B7A4AFB5C02
:104BE400BA5C0B400A40DB0113431A000E93802386
:104BF4005B019A4201DB00F095FDE6237F21734AB5
:104C0400DB00FB5CBA5C0B400A40DB0113431A0077
:104C14000F9380235B019A4201DB00F07FFD7F212B
:104C24006B4B6C4AFB5CBA5C0B400A40DB011343E0
:104C34001A00109380235B019A4201DB00F06AFDA5
:104C44007F21654B654AFB5CBA5C0B400A40DB0183
:104C540013431A00119380235B019A4201DB00F095
:104C640055FD7F215E4B5F4AFB5CBA5C0B400A40FA
:104C7400DB0113431A00129380235B019A4201DB88
:104C840000F040FDE7237F21574ADB00FB5CBA5C60
:104C94000B400A40DB0113431A00139380235B018A
:104CA4009A4201DB00F02AFD7F21504B504AFB5C05
:104CB400BA5C0B400A40DB0113431A0014938023AF
:104CC4005B019A4201DB00F015FD7F21494B4A4A02
:104CD400FB5CBA5C0B400A40DB0113431A001593DA
:104CE40080235B019A4201DB00F000FD7F21434BEE
:104CF400434AFB5CBA5C0B400A40DB0113431A00D5
:104D0400169380235B019A4201DB00F0EBFCE8235D
:104D14007F213C4ADB00FB5CBA5C0B40DB010A40B0
:104D240013431E0080235B019E4201DB00F0D7FC8D
:104D34007F21354B354AFB5CBA5C0B400A40DB01F2
:104D440013431A00179380235B019A4201DB00F09E
:104D5400C2FC5DE00E0700000F07000000F8FFFF33
:104D640012070000110700001407000013070000D9
:104D74001607000015070000170700001A070000B7
:104D8400190700001C0700001B0700001E07000095
:104D94001D0700001F070000220700002107000074
:104DA4002407000023070000260700002507000051
:104DB400270700002A070000290700002C0700002D
:104DC4002B0700002E0700002D0700002F0700000E
:104DD40032070000310700003407000033070000E9
:104DE4003607000035070000370700003A070000C7
:104DF400390700003C0700003B0700003E070000A5
:104E04003D0700003F070000420700004107000083
:104E14004346189A41461A604A465A601B9A9A6059
:104E2400019ADA60029A1A61059A5A61069A9A619D
:104E3400079ADA61089A1A62099A5A620A9A9A6275
:104E44000B9ADA620C9A1A630D9A5A630E9A9A6351
:104E54000F9ADA63109A1A64119A9E665A64129A27
:104E64003A489A64139ADA64149A1A65159A5A6538
:104E7400169A9A65179ADA65199A5A666C2205F099
:104E84005BFABD220123D200BB54EF239B00FA58E6
:104E94000433FB58BFF35F8FD31A042B18D00320BD
:104EA4006C2310405843A133FF339C4638181A92A0
:104EB40026496C22604405F03FFABFF35F8FEF216F
:104EC4001A9A8900531CBD227B500023D200BB5484
:104ED4004346189A41461A604A465A601B9A9A6099
:104EE400019ADA60029A1A61059A5A61069A9A61DD
:104EF400079ADA61089A1A62099A5A620A9A9A62B5
:104F04000B9ADA620C9A1A630D9A5A630E9A9A6390
:104F14000F9ADA63109A1A64119A9E665A64129A66
:104F24009A64139ADA64149A1A65159A5A65169A49
:104F34009A65179ADA65199A5A66054B6C22F8181D
:104F4400FEF760FE02239946FEF78BFD4C330120E9
:104F5400540700003C2B01D0FEF75EFDE14BFB5CE7
:104F6400052B01D0FEF758FDDF4B0399FB5C6C2247
:104F7400643140461C9305F0DFF9E2227F21DB4BCC
:104F8400D200FB5CBA5C0B400A40DB011343802275
:104F94005201934201DB00F080FCD54A7F21944604
:104FA40063449B001993D34BD34AFB5CBA5C0B401C
:104FB400DB010A401343994680235B01994500DBDA
:104FC400EEE37F22CD4BCE49FB5C795C134011406C
:104FD400DB010B4319004B1E9941CA4B1B91CA4973
:104FE400FB5C795C1340DB010A40134380225201CD
:104FF400934200DBD2E380229200944663441A0079
:105004000193E0231B019A4201DD00F019FCE32225
:105014007F21BE4BD200FB5CBA5C0B400A40DB0133
:1050240013431A00029380235B019A4201DB00F0D0
:1050340003FC7F21B64BB74AFB5CBA5C0B400A40C9
:10504400DB0113431A00059380235B019A4200DBC2
:10505400B7E37F21B04BB14AFB5CBA5C0B400A401A
:10506400DB0113431A00069380235B019A4200DBA1
:10507400A4E37F21AA4BAB4AFB5CBA5C0B400A4019
:10508400DB0113431A00079380235B019A4200DB80
:1050940091E3E4227F21A44BD200FB5CBA5C0B4079
:1050A4000A40DB0113431A00089380235B019A42F0
:1050B40000DB7DE37F219D4B9D4AFB5CBA5C0B408A
:1050C4000A40DB0113431A00099380235B019A42CF
:1050D40000DB6AE37F21974B974AFB5CBA5C0B4089
:1050E4000A40DB01134380225201934200DB5AE35E
:1050F4007F4A7F21944663441A93904B904AFB5C09
:10510400BA5C0B400A40DB0113431A000A93802364
:105114005B019A4200DBBDE3E5227F21894BD2008B
:10512400FB5CBA5C0B400A40DB0113431A000B938F
:1051340080235B019A4200DBA9E37F21824B834AEF
:10514400FB5CBA5C0B400A40DB0113431A000C936E
:1051540080235B019A4200DB96E37F217C4B7D4AEE
:10516400FB5CBA5C0B400A40DB0113431A000D934D
:1051740080235B019A4200DB83E37F21764B774AED
:10518400FB5CBA5C0B400A40DB0113431A000E932C
:1051940080235B019A4200DB70E3E6227F21704B9F
:1051A400D200FB5CBA5C0B400A40DB0113431A00DB
:1051B4000F9380235B019A4200DB5CE37F21694B00
:1051C400694AFB5CBA5C0B400A40DB0113431A00DA
:1051D400109380235B019A4200DB49E37F21634BF8
:1051E400634AFB5CBA5C0B400A40DB0113431A00C0
:1051F400119380235B019A4200DB36E37F215D4BF0
:105204005D4AFB5CBA5C0B400A40DB0113431A00A5
:10521400129380235B019A4200DB23E3E7227F2180
:10522400564BD200FB5CBA5C0B400A40DB011343D3
:105234001A00139380235B019A4200DB0FE37F2162
:105244004F4B504AFB5CBA5C0B400A40DB011343F2
:105254001A00149380235B019A4200DBFCE27F2155
:10526400494B4A4AFB5CBA5C0B400A40DB011343DE
:105274001A00159380235B019A4200DBE9E27F2147
:10528400434B444AFB5CBA5C0B400A40DB011343CA
:105294001A00169380235B019A4200DBD6E2E822CF
:1052A4007F213D4BD200FB5CBA5C0B400A40DB0122
:1052B40013431A00179380235B019A4200DBC2E276
:1052C4007F21364B364AFB5CBA5C0B400A40DB015B
:1052D40013431A00189380235B019A4200DBDFE238
:1052E40060E0C0460F0700000E0700001107000031
:1052F40000F8FFFF13070000120700001507000065
:105304001407000017070000160700001907000023
:105314001B0700001A0700001D0700001C070000FF
:105324001F0700001E0700002107000023070000DC
:1053340022070000250700002407000027070000BB
:1053440026070000290700002B0700002A07000099
:105354002D0700002C0700002F0700002E07000077
:105364003107000033070000320700003507000052
:105374003407000037070000360700003907000033
:105384003B0700003A0700003D0700003C0700000F
:105394003F0700003E0700004107000043070000EC
:1053A4004207000083231B01FB5C199A1D934346AB
:1053B4001A604A465A601B9A41469A60019ADA601A
:1053C400029A1A61059A5A61069A9A61079ADA61F1
:1053D400089A1A62099A5A620A9A9A620B9ADA62CB
:1053E4000C9A1A630D9A5A630E9A9A630F9ADA63A7
:1053F400109AF5481A64119A5A64129A9A64139A84
:10540400DA64149A1A65159A5A65169A9A65189A5E
:10541400DA651A9A5A66179A9A666C2204F08CFF17
:10542400BD220123D200BB54EF239B00FE5804335A
:10543400FB58BFF35F8FF31A042B16D003206C23A1
:1054440030405843A133FF339C4638186C22DE4960
:10545400604404F071FFBFF35F8FEF21731CBD2222
:1054640089007B500023D200BB5407261C9BD74ADB
:1054740033401E00682373431999FB189A1811606E
:105484008422494612019A181160D14A1B999A182C
:105494001160D04A01999A181160CF4A02999A185A
:1054A40011608522059912019A181160CB4A069958
:1054B4009A181160CA4A07999A181160C94A08993A
:1054C4009A1811608622099912019A181160C64A25
:1054D4001A999A181160C54A0A999A181160C44A0F
:1054E4000B999A18116087220C9912019A1811606D
:1054F400C04A0D999A181160BF4A0E999A18116002
:10550400BE4A0F999A1811608822109912019A18AC
:105514001160BB4A11999A181160BA4A12999A18E3
:105524001160B94A13999A181160892214991201C9
:105534009A181160B54A15999A181160B44A1699C7
:105544009A181160B34A17999A1811608A221201A5
:105554009446189A63441A6001228321B2400901D7
:105564007B5C13437B541D9B002B01D1AA4BFE543F
:105574003800FCF717FDA94B199AFE5443461A60EC
:105584004A465A601B9A41469A60019ADA60029A26
:105594001A61059A5A61069A9A61079ADA61089A19
:1055A4001A62099A5A620A9A9A620B9ADA620C9AF5
:1055B4001A630D9A5A630E9A9A630F9ADA63109AD1
:1055C4001A64119A5A64129A9A64139ADA64149AAD
:1055D4001A65159A5A65169A9A65189ADA651A9A86
:1055E4005A66179A9A668E4B6C22F81804F0A4FE39
:1055F400F8230222DB00FF32FA52FEF70DFA062BE3
:1056040001D0FEF709FA0122864BFA52FEF704FA9A
:10561400D926F600BB5D002B01D0FFF79BF93900BA
:105624006D316422FF31404604F086FEDF227E4B5A
:10563400D200FB58BA5849937C4B4892F8186C2214
:10564400414604F079FE0123BB55FFF783F90B2A89
:1056540001D0FEF7E1F9072B01D0FEF7DDF9744B19
:10566400043AFB5C0126134083221201BA5CDA403F
:10567400324201D1FEF7D0F9674A3800BB54FCF737
:1056840091FCF823DB00FE54FEF7C6F9D926F60098
:10569400BB5D002B01D0FEF76EFA39006D31642238
:1056A400FF31404604F048FEDF225F4BD200FB5836
:1056B400BA5849935D4B4892F8186C22414604F05D
:1056C4003BFE0123BB55FEF756FA062B01D0FEF72D
:1056D400A3F9FEF785FD574B1793FFF799FB554E3A
:1056E400FFF726FB534B1693FFF711FB514B159312
:1056F400FFF7FCFA4F4B1493FFF7E7FA4D4B139364
:10570400FFF7D2FA4B4B1293FFF7BCFA494B1193B4
:10571400FFF7A7FA474B1093FFF792FA454B0F9305
:10572400FFF77DFA434B0E93FFF767FA414B0D9356
:10573400FFF752FA3F4B0C93FFF73DFA3D4B0B93A7
:10574400FFF728FA3B4B0A93FFF712FA394BFFF79E
:10575400FAF9384B0993FFF7E7F9364B0893FFF74B
:10576400D2F9344B0793FFF7BCF9324B0693FFF79A
:10577400A7F9304B0593FFF792F92E4B0293FFF7ED
:105784007DF90193FFF768F92A4BFFF759F9294B83
:105794009946FFF73AF9274BFFF722F9254B2AE4FC
:1057A400244B99460DE4234BA2E4224B099391E444
:1057B400204B08937EE41F4B07936AE41D4B06932A
:1057C40057E41C4B059344E44C3301203C0800008F
:1057D40044080000480800004C0800005408000079
:1057E400580800005C080000640800006808000015
:1057F4006C08000074080000780800007C080000B1
:1058040084080000880800008C0800009408000048
:10581400980800009C08000031080000C20700003E
:10582400C407000052070000F40600005C060000F4
:105834000E070000FF0F0000B44B0293FFF7F9FBC3
:105844000193FFF7E4FBB14B179339E5AF4B169384
:1058540025E5AE4B159312E5AC4B1493FFE4AB4B2B
:105864001393ECE4A94B1293D8E4A84B1193C5E429
:10587400A64B1093B2E4A54B0F939FE4A34B0E9356
:105884008BE4A24B0D9378E4A04B0C9365E49F4BFF
:105894000B9352E49D4B0A933EE49C4BFFF77DFB34
:1058A4009A4B18937EE59A4BF8509A4B6C22F91850
:1058B400BD26994804F040FD0123F600BB55EF23B3
:1058C4009B00F95804338946FB58BFF35F8FCB1A0A
:1058D400042B01D1FEF791F9032008406C214843C1
:1058E400A131FF318C4638186C228B49604404F096
:1058F40023FDBFF35F8FEF22494692004B1CBB5040
:105904000023BB55FEF779F9D223DB00F850CCE72E
:10591400179AD343DB171A401792FEF7CBFB4B467B
:10592400DB434A46DB171A409146FEF7B1FB169A51
:10593400D343DB171A401692FEF75FFB159AD34345
:10594400DB171A401592FEF747FB744BF850ACE78F
:10595400D123DB00F850A8E7714BF850A5E7714B51
:10596400F850A2E7704BF8509FE7D723DB00F850BC
:105974009BE76E4BF85098E7D323DB00F85094E78D
:10598400002301200E00DE4032000240064200D017
:10599400B9E00133082BF5D11300654ABB54FEF777
:1059A4001CFCD623DB00F8507FE7C343DB17184009
:1059B400FEF7DCF9019AD343DB171A400192FEF794
:1059C400ACF95C4BF85070E7CF23DB00F8506CE780
:1059D400594BF85069E780239B009C46E0236044C0
:1059E4001B01984200DD1800CD23DB00F8505CE772
:1059F400524BF85059E7D423DB00F85055E7CC2339
:105A0400DB00F85051E74E4BF8504EE74D4BF85041
:105A14004BE7D523DB00F85047E7D023DB00F850F1
:105A240043E7CE23DB00F8503FE7149AD343DB1758
:105A34001A401492FEF7BFFA139AD343DB171A40A5
:105A44001392FEF7A6FA129AD343DB171A40129266
:105A5400FEF78EFA119AD343DB171A401192FEF720
:105A640076FA109AD343DB171A401092FEF75EFAC7
:105A74000F9AD343DB171A400F92FEF745FA0E9A9A
:105A8400D343DB171A400E92FEF72DFA0D9AD34337
:105A9400DB171A400D92FEF715FA0C9AD343DB1765
:105AA4001A400C92FEF7FDF90B9AD343DB171A4008
:105AB4000B92FEF7E4F90A9AD343DB171A400A92D1
:105AC400FEF7CCF9089AD343DB171A400892FEF785
